{
  "contractName": "Caller",
  "abi": [
    {
      "anonymous": false,
      "inputs": [
        {
          "indexed": true,
          "internalType": "address",
          "name": "previousOwner",
          "type": "address"
        },
        {
          "indexed": true,
          "internalType": "address",
          "name": "newOwner",
          "type": "address"
        }
      ],
      "name": "OwnershipTransferred",
      "type": "event"
    },
    {
      "anonymous": false,
      "inputs": [
        {
          "indexed": false,
          "internalType": "address",
          "name": "oracleAddress",
          "type": "address"
        }
      ],
      "name": "newOracleAddressEvent",
      "type": "event"
    },
    {
      "anonymous": false,
      "inputs": [
        {
          "indexed": false,
          "internalType": "bool",
          "name": "confirmed",
          "type": "bool"
        },
        {
          "indexed": false,
          "internalType": "string",
          "name": "country",
          "type": "string"
        },
        {
          "indexed": false,
          "internalType": "uint256",
          "name": "id",
          "type": "uint256"
        }
      ],
      "name": "validatedVAT",
      "type": "event"
    },
    {
      "inputs": [],
      "name": "owner",
      "outputs": [
        {
          "internalType": "address",
          "name": "",
          "type": "address"
        }
      ],
      "stateMutability": "view",
      "type": "function"
    },
    {
      "inputs": [],
      "name": "renounceOwnership",
      "outputs": [],
      "stateMutability": "nonpayable",
      "type": "function"
    },
    {
      "inputs": [
        {
          "internalType": "address",
          "name": "newOwner",
          "type": "address"
        }
      ],
      "name": "transferOwnership",
      "outputs": [],
      "stateMutability": "nonpayable",
      "type": "function"
    },
    {
      "inputs": [
        {
          "internalType": "address",
          "name": "_oracleContractAddress",
          "type": "address"
        }
      ],
      "name": "setOracleAddress",
      "outputs": [],
      "stateMutability": "nonpayable",
      "type": "function"
    },
    {
      "inputs": [
        {
          "internalType": "string",
          "name": "_vatNumber",
          "type": "string"
        }
      ],
      "name": "validateVAT",
      "outputs": [
        {
          "internalType": "uint256",
          "name": "",
          "type": "uint256"
        }
      ],
      "stateMutability": "nonpayable",
      "type": "function"
    },
    {
      "inputs": [
        {
          "internalType": "bool",
          "name": "_vatConfirmed",
          "type": "bool"
        },
        {
          "internalType": "string",
          "name": "_country",
          "type": "string"
        },
        {
          "internalType": "uint256",
          "name": "_id",
          "type": "uint256"
        }
      ],
      "name": "callback",
      "outputs": [],
      "stateMutability": "nonpayable",
      "type": "function"
    }
  ],
  "bytecode": "0x608060405234801561001057600080fd5b5061002d61002261003260201b60201c565b61003a60201b60201c565b6100fe565b600033905090565b60008060009054906101000a900473ffffffffffffffffffffffffffffffffffffffff169050816000806101000a81548173ffffffffffffffffffffffffffffffffffffffff021916908373ffffffffffffffffffffffffffffffffffffffff1602179055508173ffffffffffffffffffffffffffffffffffffffff168173ffffffffffffffffffffffffffffffffffffffff167f8be0079c531659141344cd1fd0a4f28419497f9722a3daafe3b4186f6b6457e060405160405180910390a35050565b610cef8061010d6000396000f3fe608060405234801561001057600080fd5b50600436106100625760003560e01c8063208ad6d8146100675780634c69c00f14610097578063715018a6146100b35780637f4fb76f146100bd5780638da5cb5b146100d9578063f2fde38b146100f7575b600080fd5b610081600480360381019061007c9190610877565b610113565b60405161008e9190610aca565b60405180910390f35b6100b160048036038101906100ac91906107e2565b6101fd565b005b6100bb610379565b005b6100d760048036038101906100d2919061080b565b610401565b005b6100e1610557565b6040516100ee91906109cb565b60405180910390f35b610111600480360381019061010c91906107e2565b610580565b005b600080600260009054906101000a900473ffffffffffffffffffffffffffffffffffffffff1673ffffffffffffffffffffffffffffffffffffffff1663342867fa85856040518363ffffffff1660e01b8152600401610173929190610a26565b602060405180830381600087803b15801561018d57600080fd5b505af11580156101a1573d6000803e3d6000fd5b505050506040513d601f19601f820116820180604052508101906101c591906108bc565b905060016003600083815260200190815260200160002060006101000a81548160ff0219169083151502179055508091505092915050565b610205610678565b73ffffffffffffffffffffffffffffffffffffffff16610223610557565b73ffffffffffffffffffffffffffffffffffffffff1614610279576040517f08c379a000000000000000000000000000000000000000000000000000000000815260040161027090610a8a565b60405180910390fd5b80600160006101000a81548173ffffffffffffffffffffffffffffffffffffffff021916908373ffffffffffffffffffffffffffffffffffffffff160217905550600160009054906101000a900473ffffffffffffffffffffffffffffffffffffffff16600260006101000a81548173ffffffffffffffffffffffffffffffffffffffff021916908373ffffffffffffffffffffffffffffffffffffffff1602179055507f441e3b056b114797955165bd03bb8393fc1658a713f09225de4745a8d068bf7d600160009054906101000a900473ffffffffffffffffffffffffffffffffffffffff1660405161036e91906109cb565b60405180910390a150565b610381610678565b73ffffffffffffffffffffffffffffffffffffffff1661039f610557565b73ffffffffffffffffffffffffffffffffffffffff16146103f5576040517f08c379a00000000000000000000000000000000000000000000000000000000081526004016103ec90610a8a565b60405180910390fd5b6103ff6000610680565b565b600160009054906101000a900473ffffffffffffffffffffffffffffffffffffffff1673ffffffffffffffffffffffffffffffffffffffff163373ffffffffffffffffffffffffffffffffffffffff1614610491576040517f08c379a000000000000000000000000000000000000000000000000000000000815260040161048890610a6a565b60405180910390fd5b6003600082815260200190815260200160002060009054906101000a900460ff166104f1576040517f08c379a00000000000000000000000000000000000000000000000000000000081526004016104e890610aaa565b60405180910390fd5b6003600082815260200190815260200160002060006101000a81549060ff02191690557fb5bd130f4b8e34760f730eea3b725518d5bd2506e747acc6a48e47a172f686bb8484848460405161054994939291906109e6565b60405180910390a150505050565b60008060009054906101000a900473ffffffffffffffffffffffffffffffffffffffff16905090565b610588610678565b73ffffffffffffffffffffffffffffffffffffffff166105a6610557565b73ffffffffffffffffffffffffffffffffffffffff16146105fc576040517f08c379a00000000000000000000000000000000000000000000000000000000081526004016105f390610a8a565b60405180910390fd5b600073ffffffffffffffffffffffffffffffffffffffff168173ffffffffffffffffffffffffffffffffffffffff16141561066c576040517f08c379a000000000000000000000000000000000000000000000000000000000815260040161066390610a4a565b60405180910390fd5b61067581610680565b50565b600033905090565b60008060009054906101000a900473ffffffffffffffffffffffffffffffffffffffff169050816000806101000a81548173ffffffffffffffffffffffffffffffffffffffff021916908373ffffffffffffffffffffffffffffffffffffffff1602179055508173ffffffffffffffffffffffffffffffffffffffff168173ffffffffffffffffffffffffffffffffffffffff167f8be0079c531659141344cd1fd0a4f28419497f9722a3daafe3b4186f6b6457e060405160405180910390a35050565b60008135905061075381610c74565b92915050565b60008135905061076881610c8b565b92915050565b60008083601f84011261078057600080fd5b8235905067ffffffffffffffff81111561079957600080fd5b6020830191508360018202830111156107b157600080fd5b9250929050565b6000813590506107c781610ca2565b92915050565b6000815190506107dc81610ca2565b92915050565b6000602082840312156107f457600080fd5b600061080284828501610744565b91505092915050565b6000806000806060858703121561082157600080fd5b600061082f87828801610759565b945050602085013567ffffffffffffffff81111561084c57600080fd5b6108588782880161076e565b9350935050604061086b878288016107b8565b91505092959194509250565b6000806020838503121561088a57600080fd5b600083013567ffffffffffffffff8111156108a457600080fd5b6108b08582860161076e565b92509250509250929050565b6000602082840312156108ce57600080fd5b60006108dc848285016107cd565b91505092915050565b6108ee81610af6565b82525050565b6108fd81610b08565b82525050565b600061090f8385610ae5565b935061091c838584610b3e565b61092583610b4d565b840190509392505050565b600061093d602683610ae5565b915061094882610b5e565b604082019050919050565b6000610960602383610ae5565b915061096b82610bad565b604082019050919050565b6000610983602083610ae5565b915061098e82610bfc565b602082019050919050565b60006109a6602783610ae5565b91506109b182610c25565b604082019050919050565b6109c581610b34565b82525050565b60006020820190506109e060008301846108e5565b92915050565b60006060820190506109fb60008301876108f4565b8181036020830152610a0e818587610903565b9050610a1d60408301846109bc565b95945050505050565b60006020820190508181036000830152610a41818486610903565b90509392505050565b60006020820190508181036000830152610a6381610930565b9050919050565b60006020820190508181036000830152610a8381610953565b9050919050565b60006020820190508181036000830152610aa381610976565b9050919050565b60006020820190508181036000830152610ac381610999565b9050919050565b6000602082019050610adf60008301846109bc565b92915050565b600082825260208201905092915050565b6000610b0182610b14565b9050919050565b60008115159050919050565b600073ffffffffffffffffffffffffffffffffffffffff82169050919050565b6000819050919050565b82818337600083830152505050565b6000601f19601f8301169050919050565b7f4f776e61626c653a206e6577206f776e657220697320746865207a65726f206160008201527f6464726573730000000000000000000000000000000000000000000000000000602082015250565b7f4d7573742062652063616c6c65642066726f6d206f7261636c6520636f6e747260008201527f6163740000000000000000000000000000000000000000000000000000000000602082015250565b7f4f776e61626c653a2063616c6c6572206973206e6f7420746865206f776e6572600082015250565b7f546869732072657175657374206973206e6f7420696e206d792070656e64696e60008201527f67206c6973742e00000000000000000000000000000000000000000000000000602082015250565b610c7d81610af6565b8114610c8857600080fd5b50565b610c9481610b08565b8114610c9f57600080fd5b50565b610cab81610b34565b8114610cb657600080fd5b5056fea26469706673582212200c171ec6c3f0520a9c8662f2f4eaf305cbc18991979be7c4b6e160bc49b76cd664736f6c63430008010033",
  "immutableReferences": {},
  "source": "// SPDX-License-Identifier: MIT\npragma solidity ^0.8.0;\n\nimport \"@openzeppelin/contracts/access/Ownable.sol\";\nimport \"./IOracle.sol\";\n\ncontract Caller is Ownable {\n  address private oracleAddress;\n  IOracle private oracleContract;\n\n  mapping(uint256=>bool) myRequests;\n  \n  event newOracleAddressEvent(address oracleAddress);\n  event validatedVAT(bool confirmed, string country, uint id);\n\n  function setOracleAddress (address _oracleContractAddress) public onlyOwner {\n    oracleAddress = _oracleContractAddress;\n    oracleContract = IOracle(oracleAddress);\n    emit newOracleAddressEvent(oracleAddress);\n  }\n\n  modifier onlyOracle() {\n    require(msg.sender == oracleAddress, \"Must be called from oracle contract\");\n    _;\n  }\n\n  function validateVAT(string calldata _vatNumber) external returns(uint256){\n    uint256 id = oracleContract.getValidateVAT(_vatNumber);\n    myRequests[id] = true;\n    return id;\n  }\n\n  function callback(bool _vatConfirmed, string calldata _country, uint _id) external onlyOracle {\n    require(myRequests[_id], \"This request is not in my pending list.\");\n    delete myRequests[_id];\n    emit validatedVAT(_vatConfirmed, _country, _id);\n  }\n  \n}\n",
  "sourcePath": "C:\\Users\\Owner\\Documents\\Programming\\Solidity\\oracle-test\\caller\\contracts\\Caller.sol",
  "compiler": {
    "name": "solc",
    "version": "0.8.1+commit.df193b15.Emscripten.clang"
  },
  "schemaVersion": "3.4.3",
  "updatedAt": "2021-10-02T06:58:55.366Z",
  "devdoc": {
    "kind": "dev",
    "methods": {
      "owner()": {
        "details": "Returns the address of the current owner."
      },
      "renounceOwnership()": {
        "details": "Leaves the contract without owner. It will not be possible to call `onlyOwner` functions anymore. Can only be called by the current owner. NOTE: Renouncing ownership will leave the contract without an owner, thereby removing any functionality that is only available to the owner."
      },
      "transferOwnership(address)": {
        "details": "Transfers ownership of the contract to a new account (`newOwner`). Can only be called by the current owner."
      }
    },
    "version": 1
  },
  "userdoc": {
    "kind": "user",
    "methods": {},
    "version": 1
  }
}