{
  "contractName": "Oracle",
  "abi": [
    {
      "anonymous": false,
      "inputs": [
        {
          "indexed": false,
          "internalType": "string",
          "name": "vatNumber",
          "type": "string"
        },
        {
          "indexed": false,
          "internalType": "address",
          "name": "callerAddress",
          "type": "address"
        },
        {
          "indexed": false,
          "internalType": "uint256",
          "name": "id",
          "type": "uint256"
        }
      ],
      "name": "GetValidateVAT",
      "type": "event"
    },
    {
      "anonymous": false,
      "inputs": [
        {
          "indexed": false,
          "internalType": "bool",
          "name": "confirmed",
          "type": "bool"
        },
        {
          "indexed": false,
          "internalType": "string",
          "name": "country",
          "type": "string"
        },
        {
          "indexed": false,
          "internalType": "address",
          "name": "callerAddress",
          "type": "address"
        }
      ],
      "name": "SetValidateVAT",
      "type": "event"
    },
    {
      "inputs": [
        {
          "internalType": "string",
          "name": "_vatNumber",
          "type": "string"
        }
      ],
      "name": "getValidateVAT",
      "outputs": [
        {
          "internalType": "uint256",
          "name": "",
          "type": "uint256"
        }
      ],
      "stateMutability": "nonpayable",
      "type": "function"
    },
    {
      "inputs": [
        {
          "internalType": "bool",
          "name": "_confirmed",
          "type": "bool"
        },
        {
          "internalType": "string",
          "name": "_country",
          "type": "string"
        },
        {
          "internalType": "address",
          "name": "_callerAddress",
          "type": "address"
        },
        {
          "internalType": "uint256",
          "name": "_id",
          "type": "uint256"
        }
      ],
      "name": "setValidateVAT",
      "outputs": [],
      "stateMutability": "nonpayable",
      "type": "function"
    }
  ],
  "bytecode": "0x6080604052600080556103e860015534801561001a57600080fd5b506108198061002a6000396000f3fe608060405234801561001057600080fd5b50600436106100365760003560e01c8063342867fa1461003b5780637551e3901461006b575b600080fd5b6100556004803603810190610050919061039b565b610087565b60405161006291906105a8565b60405180910390f35b6100856004803603810190610080919061031b565b610154565b005b600080600081548092919061009b9061062b565b9190505550600060015442336000546040516020016100bc9392919061048b565b6040516020818303038152906040528051906020012060001c6100df91906106a2565b905060016002600083815260200190815260200160002060006101000a81548160ff0219169083151502179055507f8f75a7313d5c193616d94699eef56c612efc19f2d789d7a56dab429b49409d82848433846040516101429493929190610548565b60405180910390a18091505092915050565b6002600082815260200190815260200160002060009054906101000a900460ff166101b4576040517f08c379a00000000000000000000000000000000000000000000000000000000081526004016101ab90610588565b60405180910390fd5b6002600082815260200190815260200160002060006101000a81549060ff021916905560008290508073ffffffffffffffffffffffffffffffffffffffff16637f4fb76f878787866040518563ffffffff1660e01b815260040161021b9493929190610508565b600060405180830381600087803b15801561023557600080fd5b505af1158015610249573d6000803e3d6000fd5b505050507f360aa7a4b1f1e7aaa6907739ff97e1133d9970041189a30ffdabf948c2e63aa78686868660405161028294939291906104c8565b60405180910390a1505050505050565b6000813590506102a18161079e565b92915050565b6000813590506102b6816107b5565b92915050565b60008083601f8401126102ce57600080fd5b8235905067ffffffffffffffff8111156102e757600080fd5b6020830191508360018202830111156102ff57600080fd5b9250929050565b600081359050610315816107cc565b92915050565b60008060008060006080868803121561033357600080fd5b6000610341888289016102a7565b955050602086013567ffffffffffffffff81111561035e57600080fd5b61036a888289016102bc565b9450945050604061037d88828901610292565b925050606061038e88828901610306565b9150509295509295909350565b600080602083850312156103ae57600080fd5b600083013567ffffffffffffffff8111156103c857600080fd5b6103d4858286016102bc565b92509250509250929050565b6103e9816105d4565b82525050565b6104006103fb826105d4565b610674565b82525050565b61040f816105e6565b82525050565b600061042183856105c3565b935061042e83858461061c565b61043783610731565b840190509392505050565b600061044f6027836105c3565b915061045a8261074f565b604082019050919050565b61046e81610612565b82525050565b61048561048082610612565b610698565b82525050565b60006104978286610474565b6020820191506104a782856103ef565b6014820191506104b78284610474565b602082019150819050949350505050565b60006060820190506104dd6000830187610406565b81810360208301526104f0818587610415565b90506104ff60408301846103e0565b95945050505050565b600060608201905061051d6000830187610406565b8181036020830152610530818587610415565b905061053f6040830184610465565b95945050505050565b60006060820190508181036000830152610563818688610415565b905061057260208301856103e0565b61057f6040830184610465565b95945050505050565b600060208201905081810360008301526105a181610442565b9050919050565b60006020820190506105bd6000830184610465565b92915050565b600082825260208201905092915050565b60006105df826105f2565b9050919050565b60008115159050919050565b600073ffffffffffffffffffffffffffffffffffffffff82169050919050565b6000819050919050565b82818337600083830152505050565b600061063682610612565b91507fffffffffffffffffffffffffffffffffffffffffffffffffffffffffffffffff821415610669576106686106d3565b5b600182019050919050565b600061067f82610686565b9050919050565b600061069182610742565b9050919050565b6000819050919050565b60006106ad82610612565b91506106b883610612565b9250826106c8576106c7610702565b5b828206905092915050565b7f4e487b7100000000000000000000000000000000000000000000000000000000600052601160045260246000fd5b7f4e487b7100000000000000000000000000000000000000000000000000000000600052601260045260246000fd5b6000601f19601f8301169050919050565b60008160601b9050919050565b7f546869732072657175657374206973206e6f7420696e206d792070656e64696e60008201527f67206c6973742e00000000000000000000000000000000000000000000000000602082015250565b6107a7816105d4565b81146107b257600080fd5b50565b6107be816105e6565b81146107c957600080fd5b50565b6107d581610612565b81146107e057600080fd5b5056fea2646970667358221220db2d8f2f435e65c65b5d21003c53b78ced8c5025073f133985694ffb04e399af64736f6c63430008010033",
  "immutableReferences": {},
  "source": "// SPDX-License-Identifier: MIT\npragma solidity ^0.8.0;\n\nimport \"./ICaller.sol\";\n\ncontract Oracle {\n  uint private randNonce = 0;\n  uint private modulus = 1000;\n  mapping(uint256=>bool) pendingRequests;\n  event GetValidateVAT(string vatNumber, address callerAddress, uint id);\n  event SetValidateVAT(bool confirmed, string country, address callerAddress);\n  function getValidateVAT(string calldata _vatNumber) external returns (uint256) {\n    randNonce++;\n    uint id = uint(keccak256(abi.encodePacked(block.timestamp, msg.sender, randNonce))) % modulus;\n    pendingRequests[id] = true;\n    emit GetValidateVAT(_vatNumber,msg.sender, id);\n    return id;\n  }\n  function setValidateVAT(bool _confirmed, string calldata _country, address _callerAddress, uint256 _id) external {\n    require(pendingRequests[_id], \"This request is not in my pending list.\");\n    delete pendingRequests[_id];\n    ICaller callerContract;\n    callerContract = ICaller(_callerAddress);\n    callerContract.callback(_confirmed, _country, _id);\n    emit SetValidateVAT(_confirmed, _country, _callerAddress);\n  }\n}",
  "sourcePath": "C:\\Users\\Owner\\Documents\\Programming\\Solidity\\oracle-test\\oracle\\contracts\\Oracle.sol",
  "compiler": {
    "name": "solc",
    "version": "0.8.1+commit.df193b15.Emscripten.clang"
  },
  "schemaVersion": "3.4.3",
  "updatedAt": "2021-10-02T06:58:07.927Z",
  "devdoc": {
    "kind": "dev",
    "methods": {},
    "version": 1
  },
  "userdoc": {
    "kind": "user",
    "methods": {},
    "version": 1
  }
}